{
  "contractName": "PredictionMarket",
  "abi": [
    {
      "inputs": [
        {
          "internalType": "address",
          "name": "_oracle",
          "type": "address"
        }
      ],
      "stateMutability": "nonpayable",
      "type": "constructor"
    },
    {
      "inputs": [
        {
          "internalType": "enum PredictionMarket.Side",
          "name": "",
          "type": "uint8"
        }
      ],
      "name": "bets",
      "outputs": [
        {
          "internalType": "uint256",
          "name": "",
          "type": "uint256"
        }
      ],
      "stateMutability": "view",
      "type": "function",
      "constant": true
    },
    {
      "inputs": [
        {
          "internalType": "address",
          "name": "",
          "type": "address"
        },
        {
          "internalType": "enum PredictionMarket.Side",
          "name": "",
          "type": "uint8"
        }
      ],
      "name": "betsPerGambler",
      "outputs": [
        {
          "internalType": "uint256",
          "name": "",
          "type": "uint256"
        }
      ],
      "stateMutability": "view",
      "type": "function",
      "constant": true
    },
    {
      "inputs": [],
      "name": "electionFinished",
      "outputs": [
        {
          "internalType": "bool",
          "name": "",
          "type": "bool"
        }
      ],
      "stateMutability": "view",
      "type": "function",
      "constant": true
    },
    {
      "inputs": [],
      "name": "oracle",
      "outputs": [
        {
          "internalType": "address",
          "name": "",
          "type": "address"
        }
      ],
      "stateMutability": "view",
      "type": "function",
      "constant": true
    },
    {
      "inputs": [],
      "name": "result",
      "outputs": [
        {
          "internalType": "enum PredictionMarket.Side",
          "name": "winner",
          "type": "uint8"
        },
        {
          "internalType": "enum PredictionMarket.Side",
          "name": "loser",
          "type": "uint8"
        }
      ],
      "stateMutability": "view",
      "type": "function",
      "constant": true
    },
    {
      "inputs": [
        {
          "internalType": "enum PredictionMarket.Side",
          "name": "_side",
          "type": "uint8"
        }
      ],
      "name": "placeBet",
      "outputs": [],
      "stateMutability": "payable",
      "type": "function",
      "payable": true
    },
    {
      "inputs": [],
      "name": "withdrawGain",
      "outputs": [],
      "stateMutability": "nonpayable",
      "type": "function"
    },
    {
      "inputs": [
        {
          "internalType": "enum PredictionMarket.Side",
          "name": "_winner",
          "type": "uint8"
        },
        {
          "internalType": "enum PredictionMarket.Side",
          "name": "_loser",
          "type": "uint8"
        }
      ],
      "name": "reportResult",
      "outputs": [],
      "stateMutability": "nonpayable",
      "type": "function"
    }
  ],
  "bytecode": "0x608060405234801561001057600080fd5b50604051610e9e380380610e9e833981810160405281019061003291906100dc565b80600360006101000a81548173ffffffffffffffffffffffffffffffffffffffff021916908373ffffffffffffffffffffffffffffffffffffffff16021790555050610109565b600080fd5b600073ffffffffffffffffffffffffffffffffffffffff82169050919050565b60006100a98261007e565b9050919050565b6100b98161009e565b81146100c457600080fd5b50565b6000815190506100d6816100b0565b92915050565b6000602082840312156100f2576100f1610079565b5b6000610100848285016100c7565b91505092915050565b610d86806101186000396000f3fe60806040526004361061007b5760003560e01c80637dc0d1d01161004e5780637dc0d1d0146101085780637e0ecc00146101335780639d5a373914610170578063beab6e7e146101ad5761007b565b80632b539c861461008057806343046844146100975780634ec942b7146100b357806365372147146100dc575b600080fd5b34801561008c57600080fd5b506100956101d8565b005b6100b160048036038101906100ac919061084b565b6104f0565b005b3480156100bf57600080fd5b506100da60048036038101906100d59190610878565b610622565b005b3480156100e857600080fd5b506100f161077f565b6040516100ff92919061092f565b60405180910390f35b34801561011457600080fd5b5061011d6107ab565b60405161012a9190610999565b60405180910390f35b34801561013f57600080fd5b5061015a6004803603810190610155919061084b565b6107d1565b60405161016791906109cd565b60405180910390f35b34801561017c57600080fd5b5061019760048036038101906101929190610a14565b6107e9565b6040516101a491906109cd565b60405180910390f35b3480156101b957600080fd5b506101c261080e565b6040516101cf9190610a6f565b60405180910390f35b6000600260003373ffffffffffffffffffffffffffffffffffffffff1673ffffffffffffffffffffffffffffffffffffffff16815260200190815260200160002060008060000160009054906101000a900460ff16600181111561023f5761023e6108b8565b5b6001811115610251576102506108b8565b5b8152602001908152602001600020549050600081116102a5576040517f08c379a000000000000000000000000000000000000000000000000000000000815260040161029c90610ae7565b60405180910390fd5b60011515600360149054906101000a900460ff161515146102fb576040517f08c379a00000000000000000000000000000000000000000000000000000000081526004016102f290610b53565b60405180910390fd5b6000600160008060000160009054906101000a900460ff166001811115610325576103246108b8565b5b6001811115610337576103366108b8565b5b81526020019081526020016000205482600160008060000160019054906101000a900460ff16600181111561036f5761036e6108b8565b5b6001811115610381576103806108b8565b5b81526020019081526020016000205461039a9190610ba2565b6103a49190610c13565b826103af9190610c44565b90506000600260003373ffffffffffffffffffffffffffffffffffffffff1673ffffffffffffffffffffffffffffffffffffffff1681526020019081526020016000206000806001811115610407576104066108b8565b5b6001811115610419576104186108b8565b5b8152602001908152602001600020819055506000600260003373ffffffffffffffffffffffffffffffffffffffff1673ffffffffffffffffffffffffffffffffffffffff1681526020019081526020016000206000600180811115610481576104806108b8565b5b6001811115610493576104926108b8565b5b8152602001908152602001600020819055503373ffffffffffffffffffffffffffffffffffffffff166108fc829081150290604051600060405180830381858888f193505050501580156104eb573d6000803e3d6000fd5b505050565b60001515600360149054906101000a900460ff16151514610546576040517f08c379a000000000000000000000000000000000000000000000000000000000815260040161053d90610cc4565b60405180910390fd5b346001600083600181111561055e5761055d6108b8565b5b60018111156105705761056f6108b8565b5b8152602001908152602001600020600082825461058d9190610c44565b9250508190555034600260003373ffffffffffffffffffffffffffffffffffffffff1673ffffffffffffffffffffffffffffffffffffffff16815260200190815260200160002060008360018111156105e9576105e86108b8565b5b60018111156105fb576105fa6108b8565b5b815260200190815260200160002060008282546106189190610c44565b9250508190555050565b3373ffffffffffffffffffffffffffffffffffffffff16600360009054906101000a900473ffffffffffffffffffffffffffffffffffffffff1673ffffffffffffffffffffffffffffffffffffffff16146106b2576040517f08c379a00000000000000000000000000000000000000000000000000000000081526004016106a990610d30565b60405180910390fd5b60001515600360149054906101000a900460ff16151514610708576040517f08c379a00000000000000000000000000000000000000000000000000000000081526004016106ff90610cc4565b60405180910390fd5b816000800160006101000a81548160ff0219169083600181111561072f5761072e6108b8565b5b0217905550806000800160016101000a81548160ff0219169083600181111561075b5761075a6108b8565b5b02179055506001600360146101000a81548160ff0219169083151502179055505050565b60008060000160009054906101000a900460ff16908060000160019054906101000a900460ff16905082565b600360009054906101000a900473ffffffffffffffffffffffffffffffffffffffff1681565b60016020528060005260406000206000915090505481565b6002602052816000526040600020602052806000526040600020600091509150505481565b600360149054906101000a900460ff1681565b600080fd5b6002811061083357600080fd5b50565b60008135905061084581610826565b92915050565b60006020828403121561086157610860610821565b5b600061086f84828501610836565b91505092915050565b6000806040838503121561088f5761088e610821565b5b600061089d85828601610836565b92505060206108ae85828601610836565b9150509250929050565b7f4e487b7100000000000000000000000000000000000000000000000000000000600052602160045260246000fd5b600281106108f8576108f76108b8565b5b50565b6000819050610909826108e7565b919050565b6000610919826108fb565b9050919050565b6109298161090e565b82525050565b60006040820190506109446000830185610920565b6109516020830184610920565b9392505050565b600073ffffffffffffffffffffffffffffffffffffffff82169050919050565b600061098382610958565b9050919050565b61099381610978565b82525050565b60006020820190506109ae600083018461098a565b92915050565b6000819050919050565b6109c7816109b4565b82525050565b60006020820190506109e260008301846109be565b92915050565b6109f181610978565b81146109fc57600080fd5b50565b600081359050610a0e816109e8565b92915050565b60008060408385031215610a2b57610a2a610821565b5b6000610a39858286016109ff565b9250506020610a4a85828601610836565b9150509250929050565b60008115159050919050565b610a6981610a54565b82525050565b6000602082019050610a846000830184610a60565b92915050565b600082825260208201905092915050565b7f59707520646f206e6f74206861766520616e792077696e6e696e672062657400600082015250565b6000610ad1601f83610a8a565b9150610adc82610a9b565b602082019050919050565b60006020820190508181036000830152610b0081610ac4565b9050919050565b7f656c656374696f6e206e6f742066696e69736865640000000000000000000000600082015250565b6000610b3d601583610a8a565b9150610b4882610b07565b602082019050919050565b60006020820190508181036000830152610b6c81610b30565b9050919050565b7f4e487b7100000000000000000000000000000000000000000000000000000000600052601160045260246000fd5b6000610bad826109b4565b9150610bb8836109b4565b9250828202610bc6816109b4565b91508282048414831517610bdd57610bdc610b73565b5b5092915050565b7f4e487b7100000000000000000000000000000000000000000000000000000000600052601260045260246000fd5b6000610c1e826109b4565b9150610c29836109b4565b925082610c3957610c38610be4565b5b828204905092915050565b6000610c4f826109b4565b9150610c5a836109b4565b9250828201905080821115610c7257610c71610b73565b5b92915050565b7f656c656374696f6e2069732066696e6973686564000000000000000000000000600082015250565b6000610cae601483610a8a565b9150610cb982610c78565b602082019050919050565b60006020820190508181036000830152610cdd81610ca1565b9050919050565b7f6f6e6c79206f7261636c65000000000000000000000000000000000000000000600082015250565b6000610d1a600b83610a8a565b9150610d2582610ce4565b602082019050919050565b60006020820190508181036000830152610d4981610d0d565b905091905056fea264697066735822122079da4fd9c6ff3cf1641b14fcd410a8b512a25478e3986af24d79bbe573310f8564736f6c63430008110033",
  "immutableReferences": {},
  "source": "// SPDX-License-Identifier: MIT\r\npragma solidity ^0.8.17;\r\n\r\ncontract PredictionMarket{\r\n    enum Side{ Biden, Trump}\r\n    struct Result{\r\n        Side winner;\r\n        Side loser;\r\n    }\r\n    Result public result;\r\n    \r\n    mapping(Side => uint) public bets;\r\n    mapping (address => mapping (Side => uint)) public betsPerGambler;\r\n    address public oracle;\r\n    bool public electionFinished;\r\n\r\n    constructor(address _oracle){\r\n        oracle = _oracle;\r\n    }\r\n    function placeBet(Side _side) external payable{\r\n        require(electionFinished == false, 'election is finished');\r\n        bets[_side] += msg.value;\r\n        betsPerGambler[msg.sender][_side] += msg.value;\r\n    }\r\n    function withdrawGain() external{\r\n        uint gamblerBet = betsPerGambler[msg.sender][result.winner];\r\n        require(gamblerBet > 0, 'Ypu do not have any winning bet');\r\n        require(electionFinished == true, 'election not finished');\r\n        uint gain = gamblerBet + bets[result.loser] * gamblerBet/bets[result.winner];\r\n        betsPerGambler[msg.sender][Side.Biden] = 0;\r\n        betsPerGambler[msg.sender][Side.Trump] = 0;\r\n        payable(msg.sender).transfer(gain);\r\n\r\n    }\r\n    function reportResult(Side _winner, Side _loser) external{\r\n        require(oracle == msg.sender, 'only oracle');\r\n        require(electionFinished == false, 'election is finished');\r\n        result.winner = _winner;\r\n        result.loser = _loser;\r\n        electionFinished = true;\r\n    }\r\n\r\n}",
  "sourcePath": "C:\\Users\\Lenovo\\Documents\\Web3\\us-prediction\\contracts\\PredictionMarket.sol",
  "compiler": {
    "name": "solc",
    "version": "0.8.17+commit.8df45f5f.Emscripten.clang"
  },
  "schemaVersion": "3.4.10",
  "updatedAt": "2022-11-19T09:13:43.598Z",
  "networkType": "ethereum",
  "devdoc": {
    "kind": "dev",
    "methods": {},
    "version": 1
  },
  "userdoc": {
    "kind": "user",
    "methods": {},
    "version": 1
  }
}